9724000000000020ALZICOOP                                       ESPA헤 MONTALVA, TRINIDAD                                                        
9724000000000020ALZICOOP                                       ESPA헤 MONTALVA, TRINIDAD                                                        
9724000000000020ALZICOOP                                       ESPA헤 MONTALVA, TRINIDAD                                                        
9724000000000020ALZICOOP                                       ESPA헤 MONTALVA, TRINIDAD                                                        
9724000000000020ALZICOOP                                       ESPA헤 MONTALVA, TRINIDAD                                                        
9724000000000020ALZICOOP                                       ESPA헤 MONTALVA, TRINIDAD                                                        
9724000000000020ALZICOOP                                       ESPA헤 MONTALVA, TRINIDAD                                                        
9724000000000020ALZICOOP                                       ESPA헤 MONTALVA, TRINIDAD                                                        
9724000000000020ALZICOOP                                       ESPA헤 MONTALVA, TRINIDAD                                                        
9724000000000020ALZICOOP                                       ESPA헤 MONTALVA, TRINIDAD                                                        
9724000000000020ALZICOOP                                       ESPA헤 MONTALVA, TRINIDAD                                                        
9724000000000020ALZICOOP                                       ESPA헤 MONTALVA, TRINIDAD                                                        
9724000000000020ALZICOOP                                       ESPA헤 MONTALVA, TRINIDAD                                                        
9724000000000020ALZICOOP                                       ESPA헤 MONTALVA, TRINIDAD                                                        
9724000000000020ALZICOOP                                       ESPA헤 MONTALVA, TRINIDAD                                                        
9724000000000020ALZICOOP                                       ESPA헤 MONTALVA, TRINIDAD                                                        
9724000000000020ALZICOOP                                       ESPA헤 MONTALVA, TRINIDAD                                                        
9724000000000020ALZICOOP                                       ESPA헤 MONTALVA, TRINIDAD                                                        
9724000000000020ALZICOOP                                       ESPA헤 MONTALVA, TRINIDAD                                                        
9724000000000020ALZICOOP                                       ESPA헤 MONTALVA, TRINIDAD                                                        
9724000000000152GASOLEO BONIFICADO                             ESPA헤 MONTALVA, TRINIDAD                             ALZICOOP                   
9724000000000152GASOLEO BONIFICADO                             ESPA헤 MONTALVA, TRINIDAD                             ALZICOOP                   
9724000000000152GASOLEO BONIFICADO                             ESPA헤 MONTALVA, TRINIDAD                             ALZICOOP                   
9724000000000152GASOLEO BONIFICADO                             ESPA헤 MONTALVA, TRINIDAD                             ALZICOOP                   
9724000000000152GASOLEO BONIFICADO                             ESPA헤 MONTALVA, TRINIDAD                             ALZICOOP                   
9724000000000152GASOLEO BONIFICADO                             ESPA헤 MONTALVA, TRINIDAD                             ALZICOOP                   
9724000000000152GASOLEO BONIFICADO                             ESPA헤 MONTALVA, TRINIDAD                             ALZICOOP                   
9724000000000152GASOLEO BONIFICADO                             ESPA헤 MONTALVA, TRINIDAD                             ALZICOOP                   
9724000000000152GASOLEO BONIFICADO                             ESPA헤 MONTALVA, TRINIDAD                             ALZICOOP                   
9724000000000152GASOLEO BONIFICADO                             ESPA헤 MONTALVA, TRINIDAD                             ALZICOOP                   
9724000000000152GASOLEO BONIFICADO                             ESPA헤 MONTALVA, TRINIDAD                             ALZICOOP                   
9724000000000152GASOLEO BONIFICADO                             ESPA헤 MONTALVA, TRINIDAD                             ALZICOOP                   
9724000000000152GASOLEO BONIFICADO                             ESPA헤 MONTALVA, TRINIDAD                             ALZICOOP                   
9724000000000152GASOLEO BONIFICADO                             ESPA헤 MONTALVA, TRINIDAD                             ALZICOOP                   
9724000000000152GASOLEO BONIFICADO                             ESPA헤 MONTALVA, TRINIDAD                             ALZICOOP                   
9724000000000152GASOLEO BONIFICADO                             ESPA헤 MONTALVA, TRINIDAD                             ALZICOOP                   
9724000000000152GASOLEO BONIFICADO                             ESPA헤 MONTALVA, TRINIDAD                             ALZICOOP                   
9724000000000152GASOLEO BONIFICADO                             ESPA헤 MONTALVA, TRINIDAD                             ALZICOOP                   
9724000000000152GASOLEO BONIFICADO                             ESPA헤 MONTALVA, TRINIDAD                             ALZICOOP                   
9724000000000152GASOLEO BONIFICADO                             ESPA헤 MONTALVA, TRINIDAD                             ALZICOOP                   
9724000000000152GASOLEO BONIFICADO                             ESPA헤 MONTALVA, TRINIDAD                             ALZICOOP                   
9724000000000152GASOLEO BONIFICADO                             ESPA헤 MONTALVA, TRINIDAD                             ALZICOOP                   
9724000000000152GASOLEO BONIFICADO                             ESPA헤 MONTALVA, TRINIDAD                             ALZICOOP                   
9724000000000152GASOLEO BONIFICADO                             ESPA헤 MONTALVA, TRINIDAD                             ALZICOOP                   
9724000000000152GASOLEO BONIFICADO                             ESPA헤 MONTALVA, TRINIDAD                             ALZICOOP                   
9724000000000152GASOLEO BONIFICADO                             ESPA헤 MONTALVA, TRINIDAD                             ALZICOOP                   
9724000000000152GASOLEO BONIFICADO                             ESPA헤 MONTALVA, TRINIDAD                             ALZICOOP                   
9724000000000152GASOLEO BONIFICADO                             ESPA헤 MONTALVA, TRINIDAD                             ALZICOOP                   
9724000000000152GASOLEO BONIFICADO                             ESPA헤 MONTALVA, TRINIDAD                             ALZICOOP                   
9724000000000152GASOLEO BONIFICADO                             ESPA헤 MONTALVA, TRINIDAD                             ALZICOOP                   
9724000000000152GASOLEO BONIFICADO                             ESPA헤 MONTALVA, TRINIDAD                             ALZICOOP                   
9724000000000152GASOLEO BONIFICADO                             ESPA헤 MONTALVA, TRINIDAD                             ALZICOOP                   
9724000000000152GASOLEO BONIFICADO                             ESPA헤 MONTALVA, TRINIDAD                             ALZICOOP                   
9724000000000152GASOLEO BONIFICADO                             ESPA헤 MONTALVA, TRINIDAD                             ALZICOOP                   
9724000000000152GASOLEO BONIFICADO                             ESPA헤 MONTALVA, TRINIDAD                             ALZICOOP                   
9724000000000152GASOLEO BONIFICADO                             ESPA헤 MONTALVA, TRINIDAD                             ALZICOOP                   
9724000000000152GASOLEO BONIFICADO                             ESPA헤 MONTALVA, TRINIDAD                             ALZICOOP                   
9724000000000152GASOLEO BONIFICADO                             ESPA헤 MONTALVA, TRINIDAD                             ALZICOOP                   
9724000000000152GASOLEO BONIFICADO                             ESPA헤 MONTALVA, TRINIDAD                             ALZICOOP                   
9724000000000152GASOLEO BONIFICADO                             ESPA헤 MONTALVA, TRINIDAD                             ALZICOOP                   
9724000000000152GASOLEO BONIFICADO                             ESPA헤 MONTALVA, TRINIDAD                             ALZICOOP                   
9724000000000152GASOLEO BONIFICADO                             ESPA헤 MONTALVA, TRINIDAD                             ALZICOOP                   
9724000000000152GASOLEO BONIFICADO                             ESPA헤 MONTALVA, TRINIDAD                             ALZICOOP                   
9724000000000152GASOLEO BONIFICADO                             ESPA헤 MONTALVA, TRINIDAD                             ALZICOOP                   
9724000000000152GASOLEO BONIFICADO                             ESPA헤 MONTALVA, TRINIDAD                             ALZICOOP                   
9724000000000152GASOLEO BONIFICADO                             ESPA헤 MONTALVA, TRINIDAD                             ALZICOOP                   
9724000000000152GASOLEO BONIFICADO                             ESPA헤 MONTALVA, TRINIDAD                             ALZICOOP                   
9724000000000152GASOLEO BONIFICADO                             ESPA헤 MONTALVA, TRINIDAD                             ALZICOOP                   
9724000000000152GASOLEO BONIFICADO                             ESPA헤 MONTALVA, TRINIDAD                             ALZICOOP                   
9724000000000152GASOLEO BONIFICADO                             ESPA헤 MONTALVA, TRINIDAD                             ALZICOOP                   
9724000000000152GASOLEO BONIFICADO                             ESPA헤 MONTALVA, TRINIDAD                             ALZICOOP                   
9724000000000152GASOLEO BONIFICADO                             ESPA헤 MONTALVA, TRINIDAD                             ALZICOOP                   
9724000000000152GASOLEO BONIFICADO                             ESPA헤 MONTALVA, TRINIDAD                             ALZICOOP                   
9724000000000152GASOLEO BONIFICADO                             ESPA헤 MONTALVA, TRINIDAD                             ALZICOOP                   
9724000000000152GASOLEO BONIFICADO                             ESPA헤 MONTALVA, TRINIDAD                             ALZICOOP                   
9724000000000152GASOLEO BONIFICADO                             ESPA헤 MONTALVA, TRINIDAD                             ALZICOOP                   
9724000000000152GASOLEO BONIFICADO                             ESPA헤 MONTALVA, TRINIDAD                             ALZICOOP                   
9724000000000152GASOLEO BONIFICADO                             ESPA헤 MONTALVA, TRINIDAD                             ALZICOOP                   
9724000000000152GASOLEO BONIFICADO                             ESPA헤 MONTALVA, TRINIDAD                             ALZICOOP                   
9724000000000152GASOLEO BONIFICADO                             ESPA헤 MONTALVA, TRINIDAD                             ALZICOOP                   
9724000000000152GASOLEO BONIFICADO                             ESPA헤 MONTALVA, TRINIDAD                             ALZICOOP                   
9724000000000152GASOLEO BONIFICADO                             ESPA헤 MONTALVA, TRINIDAD                             ALZICOOP                   
9724000000000152GASOLEO BONIFICADO                             ESPA헤 MONTALVA, TRINIDAD                             ALZICOOP                   
9724000000000152GASOLEO BONIFICADO                             ESPA헤 MONTALVA, TRINIDAD                             ALZICOOP                   
9724000000000152GASOLEO BONIFICADO                             ESPA헤 MONTALVA, TRINIDAD                             ALZICOOP                   
9724000000000152GASOLEO BONIFICADO                             ESPA헤 MONTALVA, TRINIDAD                             ALZICOOP                   
9724000000000152GASOLEO BONIFICADO                             ESPA헤 MONTALVA, TRINIDAD                             ALZICOOP                   
9724000000000152GASOLEO BONIFICADO                             ESPA헤 MONTALVA, TRINIDAD                             ALZICOOP                   
9724000000000152GASOLEO BONIFICADO                             ESPA헤 MONTALVA, TRINIDAD                             ALZICOOP                   
9724000000000152GASOLEO BONIFICADO                             ESPA헤 MONTALVA, TRINIDAD                             ALZICOOP                   
9724000000000152GASOLEO BONIFICADO                             ESPA헤 MONTALVA, TRINIDAD                             ALZICOOP                   
9724000000000152GASOLEO BONIFICADO                             ESPA헤 MONTALVA, TRINIDAD                             ALZICOOP                   
9724000000000152GASOLEO BONIFICADO                             ESPA헤 MONTALVA, TRINIDAD                             ALZICOOP                   
9724000000000152GASOLEO BONIFICADO                             ESPA헤 MONTALVA, TRINIDAD                             ALZICOOP                   
9724000000000152GASOLEO BONIFICADO                             ESPA헤 MONTALVA, TRINIDAD                             ALZICOOP                   
9724000000000152GASOLEO BONIFICADO                             ESPA헤 MONTALVA, TRINIDAD                             ALZICOOP                   
9724000000000152GASOLEO BONIFICADO                             ESPA헤 MONTALVA, TRINIDAD                             ALZICOOP                   
9724000000000152GASOLEO BONIFICADO                             ESPA헤 MONTALVA, TRINIDAD                             ALZICOOP                   
9724000000000152GASOLEO BONIFICADO                             ESPA헤 MONTALVA, TRINIDAD                             ALZICOOP                   
9724000000000152GASOLEO BONIFICADO                             ESPA헤 MONTALVA, TRINIDAD                             ALZICOOP                   
9724000000000152GASOLEO BONIFICADO                             ESPA헤 MONTALVA, TRINIDAD                             ALZICOOP                   
9724000000000152GASOLEO BONIFICADO                             ESPA헤 MONTALVA, TRINIDAD                             ALZICOOP                   
9724000000000152GASOLEO BONIFICADO                             ESPA헤 MONTALVA, TRINIDAD                             ALZICOOP                   
9724000000000152GASOLEO BONIFICADO                             ESPA헤 MONTALVA, TRINIDAD                             ALZICOOP                   
9724000000000152GASOLEO BONIFICADO                             ESPA헤 MONTALVA, TRINIDAD                             ALZICOOP                   
9724000000000152GASOLEO BONIFICADO                             ESPA헤 MONTALVA, TRINIDAD                             ALZICOOP                   
9724000000000152GASOLEO BONIFICADO                             ESPA헤 MONTALVA, TRINIDAD                             ALZICOOP                   
9724000000000152GASOLEO BONIFICADO                             ESPA헤 MONTALVA, TRINIDAD                             ALZICOOP                   
9724000000000152GASOLEO BONIFICADO                             ESPA헤 MONTALVA, TRINIDAD                             ALZICOOP                   
9724000000000152GASOLEO BONIFICADO                             ESPA헤 MONTALVA, TRINIDAD                             ALZICOOP                   
9724000000000152GASOLEO BONIFICADO                             ESPA헤 MONTALVA, TRINIDAD                             ALZICOOP                   
9724000000000152GASOLEO BONIFICADO                             ESPA헤 MONTALVA, TRINIDAD                             ALZICOOP                   
9724000000000152GASOLEO BONIFICADO                             ESPA헤 MONTALVA, TRINIDAD                             ALZICOOP                   
9724000000000152GASOLEO BONIFICADO                             ESPA헤 MONTALVA, TRINIDAD                             ALZICOOP                   
9724000000000152GASOLEO BONIFICADO                             ESPA헤 MONTALVA, TRINIDAD                             ALZICOOP                   
9724000000000152GASOLEO BONIFICADO                             ESPA헤 MONTALVA, TRINIDAD                             ALZICOOP                   
9724000000000152GASOLEO BONIFICADO                             ESPA헤 MONTALVA, TRINIDAD                             ALZICOOP                   
9724000000000152GASOLEO BONIFICADO                             ESPA헤 MONTALVA, TRINIDAD                             ALZICOOP                   
9724000000000152GASOLEO BONIFICADO                             ESPA헤 MONTALVA, TRINIDAD                             ALZICOOP                   
9724000000000152GASOLEO BONIFICADO                             ESPA헤 MONTALVA, TRINIDAD                             ALZICOOP                   
9724000000000152GASOLEO BONIFICADO                             ESPA헤 MONTALVA, TRINIDAD                             ALZICOOP                   
9724000000000152GASOLEO BONIFICADO                             ESPA헤 MONTALVA, TRINIDAD                             ALZICOOP                   
9724000000000152GASOLEO BONIFICADO                             ESPA헤 MONTALVA, TRINIDAD                             ALZICOOP                   
9724000000000152GASOLEO BONIFICADO                             ESPA헤 MONTALVA, TRINIDAD                             ALZICOOP                   
9724000000000152GASOLEO BONIFICADO                             ESPA헤 MONTALVA, TRINIDAD                             ALZICOOP                   
9724000000000152GASOLEO BONIFICADO                             ESPA헤 MONTALVA, TRINIDAD                             ALZICOOP                   
9724000000000152GASOLEO BONIFICADO                             ESPA헤 MONTALVA, TRINIDAD                             ALZICOOP                   
9724000000000152GASOLEO BONIFICADO                             ESPA헤 MONTALVA, TRINIDAD                             ALZICOOP                   
9724000000000152GASOLEO BONIFICADO                             ESPA헤 MONTALVA, TRINIDAD                             ALZICOOP                   
9724000000000152GASOLEO BONIFICADO                             ESPA헤 MONTALVA, TRINIDAD                             ALZICOOP                   
9724000000000152GASOLEO BONIFICADO                             ESPA헤 MONTALVA, TRINIDAD                             ALZICOOP                   
9724000000000152GASOLEO BONIFICADO                             ESPA헤 MONTALVA, TRINIDAD                             ALZICOOP                   
9724000000000152GASOLEO BONIFICADO                             ESPA헤 MONTALVA, TRINIDAD                             ALZICOOP                   
9724000000000152GASOLEO BONIFICADO                             ESPA헤 MONTALVA, TRINIDAD                             ALZICOOP                   
9724000000000152GASOLEO BONIFICADO                             ESPA헤 MONTALVA, TRINIDAD                             ALZICOOP                   
9724000000000152GASOLEO BONIFICADO                             ESPA헤 MONTALVA, TRINIDAD                             ALZICOOP                   
9724000000000152GASOLEO BONIFICADO                             ESPA헤 MONTALVA, TRINIDAD                             ALZICOOP                   
9724000000000152GASOLEO BONIFICADO                             ESPA헤 MONTALVA, TRINIDAD                             ALZICOOP                   
9724000000000152GASOLEO BONIFICADO                             ESPA헤 MONTALVA, TRINIDAD                             ALZICOOP                   
9724000000000152GASOLEO BONIFICADO                             ESPA헤 MONTALVA, TRINIDAD                             ALZICOOP                   
9724000000000152GASOLEO BONIFICADO                             ESPA헤 MONTALVA, TRINIDAD                             ALZICOOP                   
9724000000000152GASOLEO BONIFICADO                             ESPA헤 MONTALVA, TRINIDAD                             ALZICOOP                   
9724000000000152GASOLEO BONIFICADO                             ESPA헤 MONTALVA, TRINIDAD                             ALZICOOP                   
9724000000000152GASOLEO BONIFICADO                             ESPA헤 MONTALVA, TRINIDAD                             ALZICOOP                   
9724000000000152GASOLEO BONIFICADO                             ESPA헤 MONTALVA, TRINIDAD                             ALZICOOP                   
9724000000000152GASOLEO BONIFICADO                             ESPA헤 MONTALVA, TRINIDAD                             ALZICOOP                   
9724000000000152GASOLEO BONIFICADO                             ESPA헤 MONTALVA, TRINIDAD                             ALZICOOP                   
9724000000000152GASOLEO BONIFICADO                             ESPA헤 MONTALVA, TRINIDAD                             ALZICOOP                   
9724000000000152GASOLEO BONIFICADO                             ESPA헤 MONTALVA, TRINIDAD                             ALZICOOP                   
9724000000000152GASOLEO BONIFICADO                             ESPA헤 MONTALVA, TRINIDAD                             ALZICOOP                   
9724000000000152GASOLEO BONIFICADO                             ESPA헤 MONTALVA, TRINIDAD                             ALZICOOP                   
9724000000000152GASOLEO BONIFICADO                             ESPA헤 MONTALVA, TRINIDAD                             ALZICOOP                   
9724000000000152GASOLEO BONIFICADO                             ESPA헤 MONTALVA, TRINIDAD                             ALZICOOP                   
9724000000000152GASOLEO BONIFICADO                             ESPA헤 MONTALVA, TRINIDAD                             ALZICOOP                   
9724000000000152GASOLEO BONIFICADO                             ESPA헤 MONTALVA, TRINIDAD                             ALZICOOP                   
9724000000000152GASOLEO BONIFICADO                             ESPA헤 MONTALVA, TRINIDAD                             ALZICOOP                   
9724000000000152GASOLEO BONIFICADO                             ESPA헤 MONTALVA, TRINIDAD                             ALZICOOP                   
9724000000000152GASOLEO BONIFICADO                             ESPA헤 MONTALVA, TRINIDAD                             ALZICOOP                   
9724000000000152GASOLEO BONIFICADO                             ESPA헤 MONTALVA, TRINIDAD                             ALZICOOP                   
9724000000000152GASOLEO BONIFICADO                             ESPA헤 MONTALVA, TRINIDAD                             ALZICOOP                   
9724000000000152GASOLEO BONIFICADO                             ESPA헤 MONTALVA, TRINIDAD                             ALZICOOP                   
9724000000000152GASOLEO BONIFICADO                             ESPA헤 MONTALVA, TRINIDAD                             ALZICOOP                   
9724000000000152GASOLEO BONIFICADO                             ESPA헤 MONTALVA, TRINIDAD                             ALZICOOP                   
9724000000000152GASOLEO BONIFICADO                             ESPA헤 MONTALVA, TRINIDAD                             ALZICOOP                   
9724000000000152GASOLEO BONIFICADO                             ESPA헤 MONTALVA, TRINIDAD                             ALZICOOP                   
9724000000000152GASOLEO BONIFICADO                             ESPA헤 MONTALVA, TRINIDAD                             ALZICOOP                   
9724000000000152GASOLEO BONIFICADO                             ESPA헤 MONTALVA, TRINIDAD                             ALZICOOP                   
9724000000000152GASOLEO BONIFICADO                             ESPA헤 MONTALVA, TRINIDAD                             ALZICOOP                   
9724000000000152GASOLEO BONIFICADO                             ESPA헤 MONTALVA, TRINIDAD                             ALZICOOP                   
9724000000000152GASOLEO BONIFICADO                             ESPA헤 MONTALVA, TRINIDAD                             ALZICOOP                   
9724000000000152GASOLEO BONIFICADO                             ESPA헤 MONTALVA, TRINIDAD                             ALZICOOP                   
9724000000000152GASOLEO BONIFICADO                             ESPA헤 MONTALVA, TRINIDAD                             ALZICOOP                   
9724000000000235ALZICOOP                                       BARBER MOLL, BERNARDO                                                            
9724000000000235ALZICOOP                                       BARBER MOLL, BERNARDO                                                            
9724000000000235ALZICOOP                                       BARBER MOLL, BERNARDO                                                            
9724000000000235ALZICOOP                                       BARBER MOLL, BERNARDO                                                            
9724000000000235ALZICOOP                                       BARBER MOLL, BERNARDO                                                            
9724000000000235ALZICOOP                                       BARBER MOLL, BERNARDO                                                            
9724000000000235ALZICOOP                                       BARBER MOLL, BERNARDO                                                            
9724000000000235ALZICOOP                                       BARBER MOLL, BERNARDO                                                            
9724000000000235ALZICOOP                                       BARBER MOLL, BERNARDO                                                            
9724000000000235ALZICOOP                                       BARBER MOLL, BERNARDO                                                            
9724000000000235ALZICOOP                                       BARBER MOLL, BERNARDO                                                            
9724000000000235ALZICOOP                                       BARBER MOLL, BERNARDO                                                            
9724000000000235ALZICOOP                                       BARBER MOLL, BERNARDO                                                            
9724000000000235ALZICOOP                                       BARBER MOLL, BERNARDO                                                            
9724000000000235ALZICOOP                                       BARBER MOLL, BERNARDO                                                            
9724000000000235ALZICOOP                                       BARBER MOLL, BERNARDO                                                            
9724000000000235ALZICOOP                                       BARBER MOLL, BERNARDO                                                            
9724000000000235ALZICOOP                                       BARBER MOLL, BERNARDO                                                            
9724000000000235ALZICOOP                                       BARBER MOLL, BERNARDO                                                            
9724000000000235ALZICOOP                                       BARBER MOLL, BERNARDO                                                            
9724000000000235ALZICOOP                                       BARBER MOLL, BERNARDO                                                            
9724000000000235ALZICOOP                                       BARBER MOLL, BERNARDO                                                            
9724000000000235ALZICOOP                                       BARBER MOLL, BERNARDO                                                            
9724000000000235ALZICOOP                                       BARBER MOLL, BERNARDO                                                            
9724000000000235ALZICOOP                                       BARBER MOLL, BERNARDO                                                            
9724000000000235ALZICOOP                                       BARBER MOLL, BERNARDO                                                            
9724000000000235ALZICOOP                                       BARBER MOLL, BERNARDO                                                            
9724000000000235ALZICOOP                                       BARBER MOLL, BERNARDO                                                            
9724000000000235ALZICOOP                                       BARBER MOLL, BERNARDO                                                            
9724000000000235ALZICOOP                                       BARBER MOLL, BERNARDO                                                            
9724000000000235ALZICOOP                                       BARBER MOLL, BERNARDO                                                            
9724000000000235ALZICOOP                                       BARBER MOLL, BERNARDO                                                            
9724000000000235ALZICOOP                                       BARBER MOLL, BERNARDO                                                            
9724000000000235ALZICOOP                                       BARBER MOLL, BERNARDO                                                            
9724000000000235ALZICOOP                                       BARBER MOLL, BERNARDO                                                            
9724000000000235ALZICOOP                                       BARBER MOLL, BERNARDO                                                            
9724000000000235ALZICOOP                                       BARBER MOLL, BERNARDO                                                            
9724000000000235ALZICOOP                                       BARBER MOLL, BERNARDO                                                            
9724000000000235ALZICOOP                                       BARBER MOLL, BERNARDO                                                            
9724000000000235ALZICOOP                                       BARBER MOLL, BERNARDO                                                            
9724000000000235ALZICOOP                                       BARBER MOLL, BERNARDO                                                            
9724000000000235ALZICOOP                                       BARBER MOLL, BERNARDO                                                            
9724000000000235ALZICOOP                                       BARBER MOLL, BERNARDO                                                            
9724000000000235ALZICOOP                                       BARBER MOLL, BERNARDO                                                            
9724000000000235ALZICOOP                                       BARBER MOLL, BERNARDO                                                            
9724000000000235ALZICOOP                                       BARBER MOLL, BERNARDO                                                            
9724000000000235ALZICOOP                                       BARBER MOLL, BERNARDO                                                            
9724000000000235ALZICOOP                                       BARBER MOLL, BERNARDO                                                            
9724000000000235ALZICOOP                                       BARBER MOLL, BERNARDO                                                            
9724000000000235ALZICOOP                                       BARBER MOLL, BERNARDO                                                            
9724000000000235ALZICOOP                                       BARBER MOLL, BERNARDO                                                            
9724000000000235ALZICOOP                                       BARBER MOLL, BERNARDO                                                            
9724000000000235ALZICOOP                                       BARBER MOLL, BERNARDO                                                            
9724000000000235ALZICOOP                                       BARBER MOLL, BERNARDO                                                            
9724000000000235ALZICOOP                                       BARBER MOLL, BERNARDO                                                            
9724000000000235ALZICOOP                                       BARBER MOLL, BERNARDO                                                            
9724000000000235ALZICOOP                                       BARBER MOLL, BERNARDO                                                            
9724000000000235ALZICOOP                                       BARBER MOLL, BERNARDO                                                            
9724000000000235ALZICOOP                                       BARBER MOLL, BERNARDO                                                            
9724000000000235ALZICOOP                                       BARBER MOLL, BERNARDO                                                            
9724000000000235ALZICOOP                                       BARBER MOLL, BERNARDO                                                            
9724000000000235ALZICOOP                                       BARBER MOLL, BERNARDO                                                            
9724000000000235ALZICOOP                                       BARBER MOLL, BERNARDO                                                            
9724000000000235ALZICOOP                                       BARBER MOLL, BERNARDO                                                            
9724000000000235ALZICOOP                                       BARBER MOLL, BERNARDO                                                            
9724000000000235ALZICOOP                                       BARBER MOLL, BERNARDO                                                            
9724000000000235ALZICOOP                                       BARBER MOLL, BERNARDO                                                            
9724000000000235ALZICOOP                                       BARBER MOLL, BERNARDO                                                            
9724000000000235ALZICOOP                                       BARBER MOLL, BERNARDO                                                            
9724000000000235ALZICOOP                                       BARBER MOLL, BERNARDO                                                            
9724000000000235ALZICOOP                                       BARBER MOLL, BERNARDO                                                            
9724000000000235ALZICOOP                                       BARBER MOLL, BERNARDO                                                            
9724000000000235ALZICOOP                                       BARBER MOLL, BERNARDO                                                            
9724000000000235ALZICOOP                                       BARBER MOLL, BERNARDO                                                            
9724000000000235ALZICOOP                                       BARBER MOLL, BERNARDO                                                            
9724000000000235ALZICOOP                                       BARBER MOLL, BERNARDO                                                            
9724000000000235ALZICOOP                                       BARBER MOLL, BERNARDO                                                            
9724000000000235ALZICOOP                                       BARBER MOLL, BERNARDO                                                            
9724000000000235ALZICOOP                                       BARBER MOLL, BERNARDO                                                            
9724000000000235ALZICOOP                                       BARBER MOLL, BERNARDO                                                            
9724000000000235ALZICOOP                                       BARBER MOLL, BERNARDO                                                            
9724000000000235ALZICOOP                                       BARBER MOLL, BERNARDO                                                            
9724000000000235ALZICOOP                                       BARBER MOLL, BERNARDO                                                            
9724000000000235ALZICOOP                                       BARBER MOLL, BERNARDO                                                            
9724000000000235ALZICOOP                                       BARBER MOLL, BERNARDO                                                            
9724000000000235ALZICOOP                                       BARBER MOLL, BERNARDO                                                            
9724000000000235ALZICOOP                                       BARBER MOLL, BERNARDO                                                            
9724000000000235ALZICOOP                                       BARBER MOLL, BERNARDO                                                            
9724000000000235ALZICOOP                                       BARBER MOLL, BERNARDO                                                            
9724000000000235ALZICOOP                                       BARBER MOLL, BERNARDO                                                            
9724000000000235ALZICOOP                                       BARBER MOLL, BERNARDO                                                            
9724000000000235ALZICOOP                                       BARBER MOLL, BERNARDO                                                            
9724000000000235ALZICOOP                                       BARBER MOLL, BERNARDO                                                            
9724000000000235ALZICOOP                                       BARBER MOLL, BERNARDO                                                            
9724000000000235ALZICOOP                                       BARBER MOLL, BERNARDO                                                            
9724000000000235ALZICOOP                                       BARBER MOLL, BERNARDO                                                            
9724000000000235ALZICOOP                                       BARBER MOLL, BERNARDO                                                            
9724000000000235ALZICOOP                                       BARBER MOLL, BERNARDO                                                            
9724000000000235ALZICOOP                                       BARBER MOLL, BERNARDO                                                            
9724000000000235ALZICOOP                                       BARBER MOLL, BERNARDO                                                            
9724000000000235ALZICOOP                                       BARBER MOLL, BERNARDO                                                            
9724000000000235ALZICOOP                                       BARBER MOLL, BERNARDO                                                            
9724000000000235ALZICOOP                                       BARBER MOLL, BERNARDO                                                            
9724000000000235ALZICOOP                                       BARBER MOLL, BERNARDO                                                            
9724000000000235ALZICOOP                                       BARBER MOLL, BERNARDO                                                            
9724000000000235ALZICOOP                                       BARBER MOLL, BERNARDO                                                            
9724000000000235ALZICOOP                                       BARBER MOLL, BERNARDO                                                            
9724000000000235ALZICOOP                                       BARBER MOLL, BERNARDO                                                            
9724000000000235ALZICOOP                                       BARBER MOLL, BERNARDO                                                            
9724000000000235ALZICOOP                                       BARBER MOLL, BERNARDO                                                            
9724000000000235ALZICOOP                                       BARBER MOLL, BERNARDO                                                            
9724000000000235ALZICOOP                                       BARBER MOLL, BERNARDO                                                            
9724000000000235ALZICOOP                                       BARBER MOLL, BERNARDO                                                            
9724000000000235ALZICOOP                                       BARBER MOLL, BERNARDO                                                            
9724000000000235ALZICOOP                                       BARBER MOLL, BERNARDO                                                            
9724000000000235ALZICOOP                                       BARBER MOLL, BERNARDO                                                            
9724000000000235ALZICOOP                                       BARBER MOLL, BERNARDO                                                            
9724000000000235ALZICOOP                                       BARBER MOLL, BERNARDO                                                            
9724000000000235ALZICOOP                                       BARBER MOLL, BERNARDO                                                            
9724000000000235ALZICOOP                                       BARBER MOLL, BERNARDO                                                            
9724000000000235ALZICOOP                                       BARBER MOLL, BERNARDO                                                            
9724000000000235ALZICOOP                                       BARBER MOLL, BERNARDO                                                            
9724000000000235ALZICOOP                                       BARBER MOLL, BERNARDO                                                            
9724000000000235ALZICOOP                                       BARBER MOLL, BERNARDO                                                            
9724000000000235ALZICOOP                                       BARBER MOLL, BERNARDO                                                            
9724000000000235ALZICOOP                                       BARBER MOLL, BERNARDO                                                            
9724000000000235ALZICOOP                                       BARBER MOLL, BERNARDO                                                            
9724000000000235ALZICOOP                                       BARBER MOLL, BERNARDO                                                            
9724000000000235ALZICOOP                                       BARBER MOLL, BERNARDO                                                            
9724000000000235ALZICOOP                                       BARBER MOLL, BERNARDO                                                            
9724000000000235ALZICOOP                                       BARBER MOLL, BERNARDO                                                            
9724000000000235ALZICOOP                                       BARBER MOLL, BERNARDO                                                            
9724000000000235ALZICOOP                                       BARBER MOLL, BERNARDO                                                            
9724000000000235ALZICOOP                                       BARBER MOLL, BERNARDO                                                            
9724000000000235ALZICOOP                                       BARBER MOLL, BERNARDO                                                            
9724000000000235ALZICOOP                                       BARBER MOLL, BERNARDO                                                            
9724000000000235ALZICOOP                                       BARBER MOLL, BERNARDO                                                            
9724000000000235ALZICOOP                                       BARBER MOLL, BERNARDO                                                            
9724000000000235ALZICOOP                                       BARBER MOLL, BERNARDO                                                            
9724000000000235ALZICOOP                                       BARBER MOLL, BERNARDO                                                            
9724000000000235ALZICOOP                                       BARBER MOLL, BERNARDO                                                            
9724000000000235ALZICOOP                                       BARBER MOLL, BERNARDO                                                            
9724000000000235ALZICOOP                                       BARBER MOLL, BERNARDO                                                            
9724000000000235ALZICOOP                                       BARBER MOLL, BERNARDO                                                            
9724000000000235ALZICOOP                                       BARBER MOLL, BERNARDO                                                            
9724000000000235ALZICOOP                                       BARBER MOLL, BERNARDO                                                            
9724000000000235ALZICOOP                                       BARBER MOLL, BERNARDO                                                            
9724000000000235ALZICOOP                                       BARBER MOLL, BERNARDO                                                            
9724000000000235ALZICOOP                                       BARBER MOLL, BERNARDO                                                            
9724000000000235ALZICOOP                                       BARBER MOLL, BERNARDO                                                            
9724000000000235ALZICOOP                                       BARBER MOLL, BERNARDO                                                            
9724000000000235ALZICOOP                                       BARBER MOLL, BERNARDO                                                            
9724000000000235ALZICOOP                                       BARBER MOLL, BERNARDO                                                            
9724000000000235ALZICOOP                                       BARBER MOLL, BERNARDO                                                            
9724000000000235ALZICOOP                                       BARBER MOLL, BERNARDO                                                            
9724000000000235ALZICOOP                                       BARBER MOLL, BERNARDO                                                            
9724000000000235ALZICOOP                                       BARBER MOLL, BERNARDO                                                            
9724000000000235ALZICOOP                                       BARBER MOLL, BERNARDO                                                            
9724000000000235ALZICOOP                                       BARBER MOLL, BERNARDO                                                            
9724000000000235ALZICOOP                                       BARBER MOLL, BERNARDO                                                            
9724000000000235ALZICOOP                                       BARBER MOLL, BERNARDO                                                            
9724000000000235ALZICOOP                                       BARBER MOLL, BERNARDO                                                            
9724000000000235ALZICOOP                                       BARBER MOLL, BERNARDO                                                            
9724000000000235ALZICOOP                                       BARBER MOLL, BERNARDO                                                            
9724000000000235ALZICOOP                                       BARBER MOLL, BERNARDO                                                            
9724000000000235ALZICOOP                                       BARBER MOLL, BERNARDO                                                            
9724000000000235ALZICOOP                                       BARBER MOLL, BERNARDO                                                            
9724000000000235ALZICOOP                                       BARBER MOLL, BERNARDO                                                            
9724000000000235ALZICOOP                                       BARBER MOLL, BERNARDO                                                            
9724000000000235ALZICOOP                                       BARBER MOLL, BERNARDO                                                            
9724000000000235ALZICOOP                                       BARBER MOLL, BERNARDO                                                            
9724000000000235ALZICOOP                                       BARBER MOLL, BERNARDO                                                            
9724000000000235ALZICOOP                                       BARBER MOLL, BERNARDO                                                            
9724000000000235ALZICOOP                                       BARBER MOLL, BERNARDO                                                            
9724000000000235ALZICOOP                                       BARBER MOLL, BERNARDO                                                            
9724000000000235ALZICOOP                                       BARBER MOLL, BERNARDO                                                            
9724000000000235ALZICOOP                                       BARBER MOLL, BERNARDO                                                            
9724000000000235ALZICOOP                                       BARBER MOLL, BERNARDO                                                            
9724000000000235ALZICOOP                                       BARBER MOLL, BERNARDO                                                            
9724000000000235ALZICOOP                                       BARBER MOLL, BERNARDO                                                            
9724000000000235ALZICOOP                                       BARBER MOLL, BERNARDO                                                            
9724000000000235ALZICOOP                                       BARBER MOLL, BERNARDO                                                            
9724000000000235ALZICOOP                                       BARBER MOLL, BERNARDO                                                            
9724000000000235ALZICOOP                                       BARBER MOLL, BERNARDO                                                            
9724000000000235ALZICOOP                                       BARBER MOLL, BERNARDO                                                            
9724000000000235ALZICOOP                                       BARBER MOLL, BERNARDO                                                            
9724000000000235ALZICOOP                                       BARBER MOLL, BERNARDO                                                            
9724000000000235ALZICOOP                                       BARBER MOLL, BERNARDO                                                            
9724000000000235ALZICOOP                                       BARBER MOLL, BERNARDO                                                            
9724000000000235ALZICOOP                                       BARBER MOLL, BERNARDO                                                            
9724000000000235ALZICOOP                                       BARBER MOLL, BERNARDO                                                            
9724000000000235ALZICOOP                                       BARBER MOLL, BERNARDO                                                            
9724000000000235ALZICOOP                                       BARBER MOLL, BERNARDO                                                            
9724000000000235ALZICOOP                                       BARBER MOLL, BERNARDO                                                            
9724000000000235ALZICOOP                                       BARBER MOLL, BERNARDO                                                            
9724000000000235ALZICOOP                                       BARBER MOLL, BERNARDO                                                            
9724000000000235ALZICOOP                                       BARBER MOLL, BERNARDO                                                            
9724000000000235ALZICOOP                                       BARBER MOLL, BERNARDO                                                            
9724000000000235ALZICOOP                                       BARBER MOLL, BERNARDO                                                            
9724000000000235ALZICOOP                                       BARBER MOLL, BERNARDO                                                            
9724000000000235ALZICOOP                                       BARBER MOLL, BERNARDO                                                            
9724000000000235ALZICOOP                                       BARBER MOLL, BERNARDO                                                            
9724000000000235ALZICOOP                                       BARBER MOLL, BERNARDO                                                            
9724000000000235ALZICOOP                                       BARBER MOLL, BERNARDO                                                            
9724000000000235ALZICOOP                                       BARBER MOLL, BERNARDO                                                            
9724000000000235ALZICOOP                                       BARBER MOLL, BERNARDO                                                            
9724000000000235ALZICOOP                                       BARBER MOLL, BERNARDO                                                            
9724000000000235ALZICOOP                                       BARBER MOLL, BERNARDO                                                            
9724000000000235ALZICOOP                                       BARBER MOLL, BERNARDO                                                            
9724000000000235ALZICOOP                                       BARBER MOLL, BERNARDO                                                            
9724000000000235ALZICOOP                                       BARBER MOLL, BERNARDO                                                            
9724000000000235ALZICOOP                                       BARBER MOLL, BERNARDO                                                            
9724000000000235ALZICOOP                                       BARBER MOLL, BERNARDO                                                            
9724000000000235ALZICOOP                                       BARBER MOLL, BERNARDO                                                            
9724000000000235ALZICOOP                                       BARBER MOLL, BERNARDO                                                            
9724000000000235ALZICOOP                                       BARBER MOLL, BERNARDO                                                            
9724000000000235ALZICOOP                                       BARBER MOLL, BERNARDO                                                            
9724000000000235ALZICOOP                                       BARBER MOLL, BERNARDO                                                            
9724000000000235ALZICOOP                                       BARBER MOLL, BERNARDO                                                            
9724000000000235ALZICOOP                                       BARBER MOLL, BERNARDO                                                            
9724000000000235ALZICOOP                                       BARBER MOLL, BERNARDO                                                            
9724000000000235ALZICOOP                                       BARBER MOLL, BERNARDO                                                            
9724000000000235ALZICOOP                                       BARBER MOLL, BERNARDO                                                            
9724000000000235ALZICOOP                                       BARBER MOLL, BERNARDO                                                            
9724000000000235ALZICOOP                                       BARBER MOLL, BERNARDO                                                            
9724000000000235ALZICOOP                                       BARBER MOLL, BERNARDO                                                            
9724000000000235ALZICOOP                                       BARBER MOLL, BERNARDO                                                            
9724000000000235ALZICOOP                                       BARBER MOLL, BERNARDO                                                            
9724000000000235ALZICOOP                                       BARBER MOLL, BERNARDO                                                            
9724000000000235ALZICOOP                                       BARBER MOLL, BERNARDO                                                            
9724000000000235ALZICOOP                                       BARBER MOLL, BERNARDO                                                            
9724000000000235ALZICOOP                                       BARBER MOLL, BERNARDO                                                            
9724000000000235ALZICOOP                                       BARBER MOLL, BERNARDO                                                            
9724000000000235ALZICOOP                                       BARBER MOLL, BERNARDO                                                            
9724000000000235ALZICOOP                                       BARBER MOLL, BERNARDO                                                            
