E1141231      4444                                                                                                                                            0000001
E2            44440049                                                                                                                                        0000002
E420039627AT0049       SEGUI CLOQUELL FRANCISCO      CL ERMITA 23 1                46843 RAFOL DE SALEM           0000005034ES5700490500992490937164          0000003
E452717498AT0049       TORMO JORDA ARTURO            CL. ALMAS, 25                 46843 RAFOL DE SALEM           0000001002ES8100490500922090957963          0000004
E8            0049                00000000603600000000020000000004                                                                                            0000005
E2            44442038                                                                                                                                        0000006
E419968822ST2038       PAYA SEGUI SANTIAGO           PZA.DE LA CONSTITUCI”N, 5     46841 CASTELLO DE RUGAT        0000002153ES1020389607703000380264          0000007
E8            2038                00000000215300000000010000000003                                                                                            0000008
E2            44442045                                                                                                                                        0000009
E420042068YT2045       MARTINEZ ALFONSO ALICIA       CL. RAVALET, 1                46842 RUGAT                    0000001755ES8520456022470000098888          0000010
E8            2045                00000000175500000000010000000003                                                                                            0000011
E2            44443058                                                                                                                                        0000012
E485081051AT3058       MORENO MI—ANA, ANA ISABEL     CAMI SALEM, 10                46841 CASTELLO DE RUGAT        0000001197ES5930582016242720403836          0000013
E4B46004958T3058       COTS HERMANOS S.L.            CARRER DEL FORN, 1            46702 GANDIA                   0000054939ES3230582122522720007904          0000014
E420358239LT3058       CONSTANT BALLESTER RAFAEL     CL. SAN MIGUEL, 18            46844 BENIATJAR                0000003963ES1730582123132810700282          0000015
E419968179QT3058       BATALLER SOLER M.ISABEL       CL. SANT ANTONI, 26           46841 CASTELLO DE RUGAT        0000002474ES2730582286012810007817          0000016
E420391947DT3058       MARTINEZ CORTES, LUSCINDA     CL. BLASCO IBA—EZ, 42         46841 CASTELL” DE RUGAT        0000007745ES9230582286032810011205          0000017
E420009586TT3058       CLIMENT CHULIA JUAN ENRIQUE   RONDA OESTE, 6                46841 CASTELLO DE RUGAT        0000000367ES9830582286012810008964          0000018
E420014416TT3058       CLIMENT CHULIA M PILAR        CL. DEL DUC , 10              46841 CASTELLO DE RUGAT        0000000361ES5230582286082810000137          0000019
E419967214VT3058       CORTES MIRALLES HERMINIO      CL. EL SALVADOR, 16           46843 RAFOL DE SALEM           0000003532ES0230582286022810004726          0000020
E420404282QT3058       APARISI MONCHO JOSE JOAQ.     CL. VALENCIA, 8               46841 CASTELLO DE RUGAT        0000011896ES6730582286092810008742          0000021
E420368696BT3058       GIL PRATS ADRIAN              CAMI REAL, 41                 46841 CASTELLO DE RUGAT        0000001535ES1630582286022810007190          0000022
E419964735ET3058       BATALLER MONTANER M PILAR     CL. SANT VICENT 4             46843 RAFOL DE SALEM           0000006483ES8530582286012810008810          0000023
E420004782AT3058       JUAN ESCRIVA JOSE LUIS        CL. 25 D'ABRIL, 14            46841 CASTELLO DE RUGAT        0000002293ES4930582286072750000017          0000024
E420363215GT3058       PAYA ORTS BLAS                CL. JAUME I, 16               46841 CASTELLO DE RUGAT        0000008255ES4430582286092810000038          0000025
E420361975YT3058       CAMARENA ORDI—ANA RAQUEL      CL. EMILIO TARRASO,6          46841 CASTELLO DE RUGAT        0000002137ES3930582286012810010608          0000026
E420350342BT3058       CALABUIG TORRES VICENTE       AV. AUSIAS MARCH, 5           468423 RUGAT                   0000001648ES5830582286032810001826          0000027
E419967395ZT3058       CALAFAT MAHIQUES ARCADIO      CL. LA FONT, 27               46841 CASTELLO DE RUGAT        0000002205ES8530582286092810000076          0000028
E420393786PT3058       MARTINEZ JORDA MODESTO        CL. TINAJERIA, 10             46843 RAFOL DE SALEM           0000001833ES5130582286022810003747          0000029
E485302518AT3058       GOMAR GOMAR FRANCISCO         CL. SAN BERNARDO, 18          46842 RUGAT                    0000001332ES4530582286012810006135          0000030
E419987166MT3058       BALBASTRE PRATS JOSE          PLAZA 9 D'OCTUBRE, 16         46841 CASTELLO DE RUGAT        0000007073ES2330582286002810004252          0000031
E420402252XT3058       JORDA FENOLLAR MONTSERRAT     CL. SANTA TERESA, 1           46843 RAFOL DE SALEM           0000002288ES4130582286092810003778          0000032
E419951253HT3058       ALBORCH ALBORCH JOSE          CL. SANT ROC, 4               46843 SALEM                    0000002289ES1730582286082810006975          0000033
E485302450GT3058       TORRES UBEDA ROSA MARIA       CAMI RAFOL,13-1-2             46841 CASTELLO DE RUGAT        0000005743ES1330582286082810002003          0000034
E420016856WT3058       PAYA BALBASTRE NURIA          CL. JUAN CARLOS I, 30         46842 RUGAT                    0000001649ES6730582286092810009615          0000035
E419998090GT3058       MOMPO BORONAT DAVID ROMAN     CL. JAUME I,44                46841 CASTELLO DE RUGAT        0000002018ES1330582286002810006760          0000036
E473913054RT3058       GOMAR CLIMENT MARIA ISABEL    AVDA. VICENTE BOLUDA PALOP, 6846830 BENIGANIM                0000009707ES7530582286022810006807          0000037
E420011249FT3058       MARTINEZ MENGUAL REMEDIOS     CL. ALMAS,19                  46843 RAFOL DE SALEM           0000004576ES7230582286052810009042          0000038
E485302484ST3058       GIL SENDRA  CONSTANTINO       CL. MAIG, 1                   46841 CASTELLO DE RUGAT        0000002267ES1830582286042810004825          0000039
E420377267AT3058       CANET MI—ANA MANUEL           CL. SANT VICENT, 40           46841 CASTELLO DE RUGAT        0000002105ES9430582286022810006562          0000040
E420419300ST3058       BELLA BENAVENT JUAN MIGUEL    CL. SAN BERNARDO ,2           46842 RUGAT                    0000002137ES0930582286092810007749          0000041
E485302499FT3058       PASTOR ORTS VICENTE           CL.SAN RAMON, 10-3-5          46890 AGULLENT                 0000002105ES6530582286062810004948          0000042
E420390622HT3058       BRAVO LLORENS JUAN            CL. JOAQUIN VILA, 2           46840 POBLA DEL DUC            0000002201ES4730582286012810000182          0000043
E420377282HT3058       BOSCA MARTINEZ JOSE           AV. ALACANT, 32               46700 GANDIA                   0000002109ES8430582286002810004900          0000044
E419971021YT3058       PALAU GARCES JAIME            CL. SAN FELIPE, 11            468431 SALEM                   0000002288ES5830582286002810000809          0000045
E473897021ET3058       DONET CLIMENT, JESUS          DISSEMINATS, P.6-121          46841 CASTELLO DE RUGAT        0000018685ES8330582286052810001666          0000046
E419964856MT3058       MARTINEZ GOMAR JUAN           CL. JUAN CARLOS I, 3          46842 RUGAT                    0000002746ES8430582286012720000782          0000047
E420402911WT3058       GRAU CRESPO JORGE             PASEO GERMAN°AS, 81,A,3,7     46700 GANDIA                   0000014893ES9130582286042810000892          0000048
E420349850WT3058       ALCARAZ GARCIA ENRIQUE        CL. BLASCO IBAÒEZ, 18         46841 CASTELLO DE RUGAT        0000002107ES8730582286002720001068          0000049
E419966013NT3058       GRAU CRESPO CARLOS            CL. SANTA TERESA, 10          46843 RAFOL DE SALEM           0000004123ES2230582286082810006012          0000050
E419987335JT3058       ORTS ALBORCH ANGEL            CTRA. CASTELLO, 12            46843 SALEM                    0000001831ES3930582286042810009103          0000051
E473913031RT3058       CLOQUELL MENGUAL SARA         CL. TINAJERIA, 3              46843 RAFOL DE SALEM           0000006554ES9230582286062810002522          0000052
E419992265KT3058       CORTELL VIDAL JUAN MIGUEL     AVDA. LA LIBERTAD, 44         46843 SALEM                    0000004592ES3330582286012810006739          0000053
E420350161ZT3058       MARTI MORENO FEDERICO         CL. BLASCO IBA—EZ,  21        46841 CASTELLO DE RUGAT        0000001724ES0930582286072810002706          0000054
E474255532DT3058       FERRIZ PALAO CATALINA         CL. SANT ANTONI, 42           46841 CASTELLO DE RUGAT        0000002483ES7730582286032810011281          0000055
E473543797DT3058       MI—ANA BOSCA ENRIQUE          CL. 9 D'OCTUBRE, 24           46841 CASTELLO DE RUGAT        0000006304ES9730582286092810002867          0000056
E420388080YT3058       MOSCARDO BORONAT EMILIO       CL. LA FONT, 49               46841 CASTELLO DE RUGAT        0000002749ES4330582286092810007428          0000057
E4E96890009T3058       AVICOLA Y GANADERA DE SALEM CBPASAGE SAN VICENT 1,4,14      46841 CASTELLO DE RUGAT        0000013603ES3730582286032722000021          0000058
E4F46025151T3058       CASTELDUC S.COOP.V.           CL. SANT VICENT, 53           46841 CASTELLO DE RUGAT        0000004797ES6230582286002710000042          0000059
E8            3058                00000025194100000000470000000049                                                                                            0000060
E9                                00000026188500000000510000000061004                                                                                         0000061
